:020000040801F1
:1000000010A3012025A2030891510108AD51010858
:10001000C9510108E5510108015201080000000022
:100020000000000000000000000000001D52010858
:10003000395201080000000099A203085552010836
:1000400099A2030899A2030899A2030899A2030898
:1000500099A2030899A203086152010809530108F3
:1000600099A2030899A2030899A2030899A2030878
:1000700099A20308AD07010899A2030899A20308F1
:1000800099A2030899A2030899A2030899A2030858
:1000900099A2030899A2030899A2030899A2030848
:1000A00099A2030899A2030899A2030899A2030838
:1000B0001509010899A2030899A2030899A2030847
:1000C00099A2030899A2030899A2030899A2030818
:1000D00099A2030899A2030899A2030899A2030808
:1000E0005153010899A2030899A2030899A2030891
:1000F00099A2030899A2030899A2030899A20308E8
:1001000099A2030899A2030899A2030899A20308D7
:1001100099A2030899A2030899A2030899A20308C7
:1001200099A2030899A2030899A2030899A20308B7
:1001300099A2030899A2030899A2030899A20308A7
:1001400099A2030899A2030899A203080996030833
:1001500099A2030899A2030899A2030899A2030887
:1001600099A2030899A2030899A2030899A2030877
:1001700099A203082109010899A2030899A203087A
:1001800099A2030899A2030810B5054C237833B946
:10019000044810B10448AFF300800121217010BD64
:1001A000E0060020000000003079060808B5064B84
:1001B0001BB106480649AFF300800648016811B13B
:1001C000054A02B1904708BD0000000030790608DA
:1001D000E4060020D80600200000000080B586B0AC
:1001E00000AFF860B9601346FB804FF00003FB7569
:1001F000FA88FB68C3F83C21FA88FB68C3F8382109
:10020000FB684FF0020283F81121FB88F8684FF079
:100210000001BA680DF0FAFDFB7D184607F11807DA
:10022000BD4680BD80B586B000AFF860B9601346AA
:10023000FB804FF00003FB75FB88F8684FF000016E
:10024000BA680DF0E3FDFB7D184607F11807BD46BF
:1002500080BD00BF80B586B000AFF860B9601346BE
:10026000FB804FF00003FB75FA88FB68C3F894230A
:10027000FA88FB68C3F89023FB684FF0030283F809
:100280001121FB88F8684FF00001BA680DF076FD87
:10029000FB7D184607F11807BD4680BD80B586B0C6
:1002A00000AFF860B9601346FB804FF00003FB75A8
:1002B000FB88F8684FF00001BA680DF05FFDFB7D28
:1002C000184607F11807BD4680BD00BF80B584B051
:1002D00000AF78604FF00003FB737B684FF00402BF
:1002E00083F8112178684FF000014FF000024FF0C1
:1002F00000030DF08BFD786827F092FEFB7B18461B
:1003000007F11007BD4680BD80B584B000AF7860AE
:100310004FF00003FB737B684FF0050283F8112157
:1003200078684FF000014FF000024FF000030DF02D
:1003300025FD786827F074FEFB7B184607F110074F
:10034000BD4680BD80B483B000AF78600B46FB70C3
:10035000FA78796813464FEA83039B184FEAC30380
:10036000CB1803F563731B689BB2184607F10C07A3
:10037000BD4680BC704700BF80B483B000AF034669
:10038000FB714FF46143CEF2000397F907204FEA67
:100390005212F97901F01F014FF0010000FA01F14A
:1003A00043F8221007F10C07BD4680BC704700BF20
:1003B00080B483B000AF0346FB714FF46143CEF2CB
:1003C000000397F907204FEA5212F97901F01F0153
:1003D0004FF0010000FA01F102F1200243F822106F
:1003E00007F10C07BD4680BC704700BF80B500AF69
:1003F0004FF400104FF0010104F0BCF946F2880000
:10040000C4F202004FF000010BF0EEFB46F2880050
:10041000C4F202000BF028FA40F2FC63C2F20003BF
:100420004FF000021A6040F2FC63C2F2000343F690
:100430000C42C4F200025A6040F2FC63C2F20003B4
:100440004FF000029A6040F2FC63C2F200034FF0EA
:100450004002DA6040F2FC63C2F200034FF6FE7223
:100460001A6140F2FC63C2F200034FF000025A61CD
:1004700040F2FC63C2F200034FF480629A6140F2E2
:10048000FC63C2F200034FF40062DA6140F2FC63E5
:10049000C2F200034FF400521A6240F2FC63C2F24F
:1004A00000034FF480725A6240F2FC63C2F2000310
:1004B0004FF400329A6240F2FC63C2F200034FF044
:1004C0000002DA6240F2FC63C2F200034FF0000265
:1004D0001A6340F2FC63C2F200034FF000025A6359
:1004E00040F2FC63C2F200034FF000029A6346F24E
:1004F0008800C4F2020040F2FC61C2F200010BF07D
:10050000D5FA4FF47050C4F200004FF002014FF0E2
:10051000010228F059FC46F24000C4F202004FF0FC
:1005200000010BF061FB46F24000C4F202000BF048
:100530009BF940F23873C2F200034FF080621A60F8
:1005400040F23873C2F2000344F20C02C4F200021B
:100550005A6040F23873C2F200034FF000029A6012
:1005600040F23873C2F200034FF00002DA6040F24A
:100570003873C2F200034FF6FE721A6140F238730C
:10058000C2F200034FF000025A6140F23873C2F227
:1005900000034FF480629A6140F23873C2F20003A4
:1005A0004FF40062DA6140F23873C2F200034FF494
:1005B00000521A6240F23873C2F200034FF48072A4
:1005C0005A6240F23873C2F200034FF400329A626A
:1005D00040F23873C2F200034FF00002DA6240F2D8
:1005E0003873C2F200034FF000021A6340F238730E
:1005F000C2F200034FF000025A6340F23873C2F2B5
:1006000000034FF000029A6346F24000C4F2020079
:1006100040F23871C2F200010BF048FA46F2400095
:10062000C4F202004FF018014FF001020BF056FC2B
:100630004FF00D00FFF7A0FE4FF040204FF00101FA
:100640004FF0010228F0C0FB80BD00BF80B584B030
:1006500000AFF860B9607A6040F27473C2F20003D0
:10066000FA681A6040F27873C2F20003BA681A603E
:1006700040F27C73C2F200037A681A6040F2FC63B5
:10068000C2F20003FA689A6040F2FC63C2F200030F
:100690007A681A6146F28800C4F2020040F2FC61F6
:1006A000C2F200010BF002FA40F23873C2F200030A
:1006B000BA689A6040F23873C2F200037A681A612D
:1006C00046F24000C4F2020040F23871C2F200016A
:1006D0000BF0ECF946F28800C4F202004FF0010181
:1006E0000BF082FA46F24000C4F202004FF0010122
:1006F0000BF07AFA4FF47053C4F200039B8B9BB259
:1007000003F48063002B07D14FF47050C4F2000053
:100710004FF0010128F0D2F94FF040239B8B9BB2A0
:1007200003F48063002B05D14FF040204FF001010E
:1007300028F0C4F907F11007BD4680BD80B500AFB1
:100740004FF040204FF0000128F0B8F94FF47050FE
:10075000C4F200004FF0000128F0B0F946F240006A
:10076000C4F202004FF000010BF03EFA46F288009E
:10077000C4F202004FF000010BF036FA4FF04020B7
:100780004FF001014FF0000228F01EFB4FF00D006A
:10079000FFF70EFE46F24000C4F202004FF01801CF
:1007A0004FF000020BF09AFB80BD00BF80B500AF98
:1007B00046F24000C4F202004FF081510BF01CFBE6
:1007C0000346002B53D040F27C73C2F200031B6837
:1007D0004FEA53039AB240F28073C2F200031A80C8
:1007E00040F28073C2F200031B881BB24FEA43023F
:1007F00040F27873C2F200031B68D3181A4640F225
:100800008473C2F200031A6040F28073C2F20003E4
:100810001B881BB24FEA430240F27473C2F200031A
:100820001B68D3181A4640F28873C2F200031A609C
:1008300040F28473C2F20003196840F28873C2F276
:1008400000031A6840F28073C2F200031B881BB2D7
:10085000084611461A464FF000030AF06FFE46F2B2
:100860004000C4F202004FF081510BF007FB46F24A
:100870004000C4F202004FF00001C1F210010BF081
:10088000BBFA0346002B43D040F27C73C2F2000354
:100890001B684FEA53039AB240F28073C2F200031E
:1008A0001A8040F27873C2F200031B681A4640F2C5
:1008B0008473C2F200031A6040F27473C2F2000340
:1008C0001B681A4640F28873C2F200031A6040F2B5
:1008D0008473C2F20003196840F28873C2F2000305
:1008E0001A6840F28073C2F200031B881BB20846EC
:1008F00011461A464FF001030AF020FE46F240006E
:10090000C4F202004FF00001C1F210010BF0B6FA80
:1009100080BD00BF80B500AF27F032FE80BD00BFB4
:1009200080B400AFBD4680BC704700BF80B582B0C8
:1009300002AF4AF66070C0F6050003F041FA40F2DB
:10094000D813C2F20003009344F68060C2F20000A4
:100950004FF0000145F61412C2F2000240F270138B
:10096000C2F2000339F0AAFE4AF67870C0F605001C
:1009700003F026FABD4680BD80B500AF44F6806026
:10098000C2F2000045F61411C2F2000139F0FCFE7B
:1009900080BD00BF80B487B000AF87ED030AB860A8
:1009A0000B46FB71D7ED027AF8EE677AC7ED057A50
:1009B000FB79002B06D147F69013C2F200034FF0EB
:1009C00000021A6097ED057ADFED0C7AC7EE277A00
:1009D000C7ED057A97ED037AD7ED057AC7EE277A4A
:1009E000FCEEE77A45F69813C2F20003C3ED007AF5
:1009F00007F11C07BD4680BC704700BF0000804760
:100A000080B487B000AFF860B9601346FB804FF048
:100A100000037B6151E047F69013C2F200031A68AD
:100A200045F69813C2F200031B68D21847F69013DC
:100A3000C2F200031A6047F69013C2F200031B686B
:100A40004FEA93133B613B694FEA83534FEA935359
:100A50003B614AF69073C0F605033A6933F81230E9
:100A60001BB207EE103AF8EEC77AFB68C3ED007AC6
:100A70003B6903F580733B613B694FEA83534FEA5F
:100A800093533B614AF69073C0F605033A6933F815
:100A900012301BB207EE103AF8EEC77ABB68C3ED0E
:100AA000007AFB6803F10403FB60BB6803F10403F5
:100AB000BB607B6903F101037B61FA887B699A4221
:100AC000A9D807F11C07BD4680BC704780B485B02B
:100AD00000AF78604FF00003BB600EE04FF0000302
:100AE000FB6003E0FB6803F10103FB60FB680E2B76
:100AF000F8D9BB6803F10103BB60BA687B689A420E
:100B0000ECD307F11407BD4680BC704780B582B0B6
:100B100000AF4FF004033B604FF001033B714FF017
:100B20000003BB714FF00003FB714FF000037B71BA
:100B30003B464FF44060C4F20200194605F0F6F956
:100B40004FF44063C4F202034FF004025A8307F1EA
:100B50000807BD4680BD00BF80B588B000AF4FF428
:100B600080404FF0010103F083FE4FF002033B771A
:100B70004FF00003BB774FF003037B774FF4005334
:100B8000BB6107F118034FF48060C4F202001946FC
:100B900005F0CCF94FF00803BB6107F118034FF4DF
:100BA0000060C4F20200194605F0C0F94FF00403DA
:100BB000BB6107F118034FF40060C4F2020019464C
:100BC00005F0B4F94FF48060C4F202004FF00D015B
:100BD0004FF0050205F038FB4FF40060C4F202004C
:100BE0004FF002014FF0050205F02EFB4FF40060BC
:100BF000C4F202004FF003014FF0050205F024FBA0
:100C00004FF46050C4F2000027F056FD4FF000038F
:100C1000BB804FF000033B814FF002037B814FF01C
:100C20000103BB814FF40073FB814FF008033B824B
:100C30004FF000037B824FF48273FB8007F10403C3
:100C40004FF46050C4F20000194627F079FD4FF4CC
:100C50006050C4F200004FF0010127F00FFF4FF089
:100C600001033B774FF00003BB774FF002037B7724
:100C70004FF48053BB6107F118034FF48050C4F266
:100C80000200194605F052F94FF00803BB6107F165
:100C900018034FF44060C4F20200194605F046F90B
:100CA0004FF48050C4F202004FF4805105F078FAFE
:100CB00007F12007BD4680BD80B582B000AF4FF47C
:100CC0006050C4F200004FF0000127F0D7FE4FF44F
:100CD0006050C4F2000027F0EFFC4FF000033B71BE
:100CE0004FF000037B714FF400533B603B464FF4E1
:100CF0008060C4F20200194605F018F94FF00803AD
:100D00003B603B464FF40060C4F20200194605F018
:100D10000DF94FF004033B603B464FF40060C4F212
:100D20000200194605F002F94FF480533B603B4640
:100D30004FF48050C4F20200194605F0F7F807F1AD
:100D40000807BD4680BD00BF80B582B000AF4CF63D
:100D5000B3733B604FF002033B714FF003037B71B1
:100D60004FF00003BB714FF00003FB713B464FF4A3
:100D70004060C4F20200194605F0D8F84FF4406014
:100D8000C4F202004FF000014FF00C0205F05CFAD3
:100D90004FF44060C4F202004FF001014FF00C022A
:100DA00005F052FA4FF44060C4F202004FF0040123
:100DB0004FF00C0205F048FA4FF44060C4F2020014
:100DC0004FF005014FF00C0205F03EFA4FF4406081
:100DD000C4F202004FF007014FF00C0205F034FAA4
:100DE0004FF44060C4F202004FF008014FF00C02D3
:100DF00005F02AFA4FF44060C4F202004FF00901F6
:100E00004FF00C0205F020FA4FF44060C4F20200EB
:100E10004FF00A014FF00C0205F016FA4FF4406053
:100E2000C4F202004FF00B014FF00C0205F00CFA77
:100E30004FF44060C4F202004FF00E014FF00C027C
:100E400005F002FA4FF44060C4F202004FF00F01C7
:100E50004FF00C0205F0F8F94FF680733B604FF04D
:100E600002033B714FF003037B714FF00003BB7132
:100E70004FF00003FB713B464FF48050C4F2020078
:100E8000194605F053F84FF48050C4F202004FF0B9
:100E900007014FF00C0205F0D7F94FF48050C4F26F
:100EA00002004FF008014FF00C0205F0CDF94FF4AD
:100EB0008050C4F202004FF009014FF00C0205F01F
:100EC000C3F94FF48050C4F202004FF00A014FF012
:100ED0000C0205F0B9F94FF48050C4F202004FF053
:100EE0000B014FF00C0205F0AFF94FF48050C4F243
:100EF00002004FF00C014FF00C0205F0A5F94FF481
:100F00008050C4F202004FF00D014FF00C0205F0CA
:100F10009BF94FF48050C4F202004FF00E014FF0E5
:100F20000C0205F091F94FF48050C4F202004FF02A
:100F30000F014FF00C0205F087F94FF008033B60FA
:100F40004FF001033B714FF00003BB714FF0020300
:100F50007B713B464FF44060C4F20200194604F036
:100F6000E5FF07F10807BD4680BD00BF80B500AFB3
:100F70004FF44060C4F202004FF0080105F010F990
:100F80004CF25030FFF7A2FD4FF44060C4F2020073
:100F90004FF0080105F012F94CF25030FFF796FDC2
:100FA0004FF44060C4F202004FF0080105F0F8F879
:100FB00048F2A060C0F20100FFF788FD80BD00BFCD
:100FC00080B596B000AF4FF001004FF0010103F083
:100FD00025FC4FF003033B604FF000037B604FF0B4
:100FE0000903BB604FF00003FB604FF000033B615F
:100FF0004FF000037B614FF00003BB614FF0000333
:10100000FB614FF000033B624FF000037B624FF047
:101010001003BB624FF00003FB624FF000033B6321
:101020004FF000037B634FF00003BB634FF00003FE
:10103000FB634FF480533B644FF000037B644FF03D
:101040000003BB644FF00003FB643B463B653B463B
:101050007B6507F11C0318460BF038F84FF00000D1
:101060004FF001010BF05EF907F15807BD4680BD56
:1010700080B582B000AF0346FB7100BF4FF46050F3
:10108000C4F200004FF0020127F0F8FE0346002BE7
:10109000F4D0FB799BB24FF46050C4F200001946C3
:1010A00027F02AFE00BF4FF46050C4F200004FF05A
:1010B000010127F0E3FE0346002BF4D04FF460500B
:1010C000C4F2000027F00AFE07F10807BD4680BD04
:1010D00080B582B000AF4FF00003FB704FF4805337
:1010E0007B600EE07B68002B14BF00230123DBB282
:1010F0007A6802F1FF327A60002B02D04FF0FF03D2
:1011000039E04FF46050C4F200004FF0020127F0C4
:10111000B5FE0346002BE5D0FB789BB24FF4605040
:10112000C4F20000194627F0E7FD4FF480537B60BE
:101130000EE07B68002B14BF00230123DBB27A682A
:1011400002F1FF327A60002B02D04FF0FF0312E071
:101150004FF46050C4F200004FF0010127F08EFE02
:101160000346002BE5D04FF46050C4F2000027F096
:10117000B5FD0346DBB2184607F10807BD4680BD42
:1011800080B582B000AF0346FB714FF48050C4F2CB
:1011900002004FF4805105F011F84FF07000FFF796
:1011A00067FF4FF00000FFF763FFFB791846FFF77A
:1011B0005FFF4FF48050C4F202004FF4805104F0FE
:1011C000EFFF07F10807BD4680BD00BF80B582B0C4
:1011D00000AF0346FB804FF48050C4F202004FF48E
:1011E000805104F0EBFF4FF07200FFF741FFFB88E6
:1011F0004FEA13239BB2DBB21846FFF739FFFB8897
:10120000DBB21846FFF734FF4FF48050C4F20200FF
:101210004FF4805104F0C4FF07F10807BD4680BDBC
:1012200080B500AF4FF07200FFF722FF80BD00BF16
:1012300080B582B000AF0346FB8047F69013C2F240
:10124000000303F5825303F110031B78DBB2002B7C
:101250000DD0FB884FEA13239BB2DBB21846FFF791
:1012600007FFFB88DBB21846FFF702FF05E04FF0EF
:101270000003C6F20203FA881A8007F10807BD4688
:1012800080BD00BF80B582B000AF4FF48050C4F283
:1012900002004FF4805104F091FF4FF07300FFF70C
:1012A000E7FEFFF715FFFFF713FF0346FB71FB791E
:1012B000BB80BB884FEA0323BB80FFF709FF0346CF
:1012C000FB70FB789AB2BB881343BB804FF480500D
:1012D000C4F202004FF4805104F062FFBB8818464C
:1012E00007F10807BD4680BD80B582B000AF024659
:1012F0000B46FA80BB8047F69013C2F2000303F559
:10130000825303F110031B78DBB2002B09D0FB885A
:10131000DBB21846FFF734FFBB881846FFF756FFCD
:1013200009E04FF0C043FA881A804FF00003C6F27C
:101330000203BA881A8007F10807BD4680BD00BFC6
:1013400080B582B000AF0346FB8047F69013C2F22F
:10135000000303F5825303F110031B78DBB2002B6B
:1013600008D0FB88DBB21846FFF70AFFFFF78AFFB9
:10137000034609E04FF0C043FA881A804FF000039B
:10138000C6F202031B889BB2184607F10807BD4648
:1013900080BD00BF80B582B000AF02460B46FA8028
:1013A000BB80BB884FF020001946FFF79DFFFB88EC
:1013B0004FF021001946FFF797FF07F10807BD46D8
:1013C00080BD00BF80B584B000AF0346FB804FF006
:1013D00000004FF00001FFF7DDFF47F69013C2F267
:1013E000000303F5825303F110031B78DBB2002BDB
:1013F00027D04FF02200FFF7C3FE4FF48053C4F212
:1014000002034FF480525A83FFF70AFF4FF00003A4
:10141000FB6007E0FB881846FFF70AFFFB6803F153
:101420000103FB60FA6848F6FF73C0F201039A42B9
:10143000F0D94FF48053C4F202034FF480521A8360
:1014400019E04FF0C0434FF022021A804FF0000322
:10145000FB6009E04FF00003C6F20203FA881A802D
:10146000FB6803F10103FB60FA6848F6FF73C0F202
:1014700001039A42EED907F11007BD4680BD00BFB7
:1014800080B582B000AF13460246FA800A46BA80A1
:101490007B80FA8840F23F139A4211D8BA8840F212
:1014A0003F139A420CD8FA88BB8810461946FFF7BA
:1014B00071FF7B884FF022001946FFF715FF00E00F
:1014C00000BF07F10807BD4680BD00BF80B500AF73
:1014D00047F69013C2F2000303F5825303F11003A1
:1014E0001B78DBB2002B0ED04FF02200FFF748FE36
:1014F0004FF48050C4F202004FF4805104F05EFEBD
:10150000FFF78EFE04E04FF0C0434FF022021A8036
:1015100080BD00BF80B582B000AF13460246FA809E
:101520000A46BA807B80FA88BB8810461946FFF7C6
:1015300031FFFFF7CBFF7B881846FFF779FE47F6B0
:101540009013C2F2000303F5825303F110031B78DA
:10155000DBB2002B07D04FF48050C4F202004FF4EE
:10156000805104F01DFE07F10807BD4680BD00BF95
:1015700080B584B000AFF880B9807A807B704FF07E
:101580000003FB60FA88BB8810461946FFF702FF8C
:101590007B78012B26D1FFF799FF4FF00003FB600A
:1015A00007E03B8B1846FFF743FEFB6803F101039E
:1015B000FB607A88FB689A42F3D847F69013C2F230
:1015C000000303F5825303F110031B78DBB2002BF9
:1015D00038D04FF48050C4F202004FF4805104F030
:1015E000DFFD2FE04FF00003FB6027E0FFF76EFF09
:1015F0003B8B1846FFF71CFE47F69013C2F2000320
:1016000003F5825303F110031B78DBB2002B07D0E4
:101610004FF48050C4F202004FF4805104F0C0FD3A
:10162000FB8803F10103FB80FA88BB88104619464A
:10163000FFF7B0FEFB6803F10103FB607A88FB68EB
:101640009A42D3D807F11007BD4680BD80B586B059
:1016500000AFF880B9807A803B804FF000037B6157
:101660004FF000033B613B88FB814FF000037B613F
:1016700059E0FA88BB8810461946FFF78BFEFFF742
:1016800025FFFB894FEAD3039BB24FEAC3239AB2EB
:10169000FB894FEA93039BB24FEA43139BB2134378
:1016A0009AB2FB894FEAD3039BB29BB213439BB21E
:1016B0009BB21846FFF7BCFD47F69013C2F2000339
:1016C00003F5825303F110031B78DBB2002B07D024
:1016D0004FF48050C4F202004FF4805104F060FDDA
:1016E0003B6903F101033B613B69082B13D17B8804
:1016F0004FEA53039BB21A467B699A4204D9FB898D
:1017000003F10403FB8103E0FB89A3F10403FB81E4
:101710004FF000033B61FB8803F10103FB807B6911
:1017200003F101037B617A887B699A42A1D807F1B2
:101730001807BD4680BD00BF80B584B002AFF880F9
:10174000B9807A803B80F988BA883B88388A0090D3
:10175000084611461A464FF00003FFF709FFF988C3
:10176000BA887B88388A0090084611461A464FF09E
:101770000103FFF7FDFEFA883B88D31899B27B88F6
:1017800003F101039BB2BA88388A009008461146DB
:101790001A464FF00103FFF7EBFEBA887B88D31897
:1017A0009AB2F9883B88388A0090084611461A4652
:1017B0004FF00003FFF7DCFE07F10807BD4680BDD0
:1017C00080B584B002AFF880B9807A803B80F98818
:1017D000BA883B88388A0090084611461A464FF06E
:1017E0000003FFF7C5FEF988BA887B88388A009025
:1017F000084611461A464FF00103FFF7B9FEFA8872
:101800003B88D31899B2BA887B88388A00900846FA
:1018100011461A464FF00103FFF7AAFE07F1080729
:10182000BD4680BD80B586B002AFF880B9807A80B1
:101830003B8047F69013C2F2000303F5825303F195
:1018400010031B78DBB2002B7FD0FA88BB881046D0
:101850001946FFF79FFD4FF0030041F23801FFF7F3
:1018600043FDBB884FF050001946FFF73DFDBA8895
:101870007B88D3189BB203F1FF339BB24FF051002A
:101880001946FFF731FDFB884FF052001946FFF76C
:101890002BFDFA883B88D3189BB203F1FF339BB230
:1018A0004FF053001946FFF71FFD7B883A8802FB73
:1018B00003F3BB60FFF70AFE4FF00003FB6010E08C
:1018C0003B8B4FEA13239BB2DBB21846FFF7D0FBEA
:1018D0003B8BDBB21846FFF7CBFBFB6803F1010340
:1018E000FB60FA68BB689A42EAD34FF050004FF0B1
:1018F0000001FFF7F9FC4FF051004FF0EF01FFF747
:10190000F3FC4FF052004FF00001FFF7EDFC4FF0F9
:10191000530040F23F11FFF7E7FC4FF0030041F2A4
:101920003001FFF7E1FC1DE0F988BA887B88388B2D
:101930000090084611461A464FF00103FFF718FEC3
:10194000FB8803F10103FB8000E000BF3B88002B14
:101950000CBF00230123DBB23A8802F1FF323A8048
:10196000002BE1D107F11007BD4680BD80B582B0E4
:1019700000AFF880B9807A803B80FA887B88104677
:101980001946FFF707FD4FF0030041F23801FFF75A
:10199000ABFC7B884FF050001946FFF7A5FC7A8816
:1019A0003B88D3189BB203F1FF339BB24FF0510039
:1019B0001946FFF799FCFB884FF052001946FFF7D4
:1019C00093FCFA88BB88D3189BB203F1FF339BB218
:1019D0004FF053001946FFF787FCFFF777FD07F13B
:1019E0000807BD4680BD00BF80B582B000AF03468A
:1019F000FB8047F69013C2F2000303F5825303F114
:101A000010031B78DBB2002B0DD0FB884FEA1323A9
:101A10009BB2DBB21846FFF72BFBFB88DBB2184604
:101A2000FFF726FB03E0FB881846FFF701FC07F1F0
:101A30000807BD4680BD00BF80B500AF47F69013D4
:101A4000C2F2000303F5825303F110031B78DBB2EB
:101A5000002B07D04FF48050C4F202004FF48051A5
:101A600004F09EFB4FF050004FF00001FFF73CFCEC
:101A70004FF051004FF0EF01FFF736FC4FF05200EE
:101A80004FF00001FFF730FC4FF0530040F23F11E0
:101A9000FFF72AFC4FF0030041F23001FFF724FC6E
:101AA00080BD00BF80B588B000AFF880B980FA7003
:101AB0003B80FB88FB82FB6A9B887B75FB6A1A680C
:101AC000FB78A3F120034FEA4303F96AC98801FBBD
:101AD00003F3D3183B61FA8ABB8810461946FFF717
:101AE00059FC47F69013C2F2000303F5825303F149
:101AF00010031B78DBB2002B00F0C4804FF0030012
:101B000041F23801FFF7F0FBBB884FF05000194657
:101B1000FFF7EAFBFB6ADA88BB88D3189BB203F1B4
:101B2000FF339BB24FF051001946FFF7DDFBFB88F6
:101B30004FF052001946FFF7D7FBFB6A9A88FB8AE1
:101B4000D3189BB203F1FF339BB24FF053001946F9
:101B5000FFF7CAFBFFF7BAFC4FF00003FB6164E03C
:101B60004FF00003BB6156E0FB694FEA43033A695B
:101B7000D3181A88797D4AF6AB23CAF6AA23A3FBA9
:101B800001034FEAD303DBB24FEAC3034FF08001F6
:101B900001FA03F1BB6941FA03F39BB213409BB214
:101BA000FB81FB694FEA43033A69D3181A88BB6982
:101BB0004FF0010101FA03F39BB213409BB2BB81CA
:101BC000FB89002B02D17B7D0C2B05D9BB89002B17
:101BD00010D17B7D0C2B0DD93B8D4FEA13239BB28B
:101BE000DBB21846FFF744FA3B8DDBB21846FFF72D
:101BF0003FFA0CE03B884FEA13239BB2DBB2184656
:101C0000FFF736FA3B88DBB21846FFF731FABB69BB
:101C100003F10103BB61FB6A9B881A46BB699A42C8
:101C2000A2D8FB6903F10103FB61FB6ADB881A465A
:101C3000FB699A4294D84FF48050C4F202004FF4EA
:101C4000805104F0ADFA4FF050004FF00001FFF763
:101C50004BFB4FF051004FF0EF01FFF745FB4FF00A
:101C600052004FF00001FFF73FFB4FF0530040F2EE
:101C70003F11FFF739FB4FF0030041F23001FFF74E
:101C800033FB74E04FF00003FB616AE04FF00003A8
:101C9000BB6150E0FFF71AFCFB694FEA43033A6966
:101CA000D3181A88797D4AF6AB23CAF6AA23A3FB78
:101CB00001034FEAD303DBB24FEAC3034FF08001C5
:101CC00001FA03F1BB6941FA03F39BB213409BB2E3
:101CD000FB81FB694FEA43033A69D3181A88BB6951
:101CE0004FF0010101FA03F39BB213409BB2BB8199
:101CF000FB89002B02D17B7D0C2B05D9BB89002BE6
:101D000007D17B7D0C2B04D93B8D1846FFF790FA49
:101D100003E03B881846FFF78BFAFB8A03F10103C7
:101D2000FB82FA8ABB8810461946FFF733FBBB6972
:101D300003F10103BB61FB6A9B881A46BB699A42A7
:101D4000A8D8BB8803F10103BB80FB88FB82FA8A19
:101D5000BB8810461946FFF71DFBFB6903F1010321
:101D6000FB61FB6ADB881A46FB699A428ED807F151
:101D70002007BD4680BD00BF90B589B002AFBA60F4
:101D80000246FA810A46BA81FB8097F82C3003F1AB
:101D9000FF33032B22D801A252F823F0AD1D010816
:101DA000B91D0108C51D0108D11D01084AF6387387
:101DB000C0F605037B6117E04AF64073C0F60503E1
:101DC0007B6111E04AF64873C0F605037B610BE0C6
:101DD0004AF65873C0F605037B6105E04AF6507376
:101DE000C0F605037B6100BFBB681B78FB74BB6852
:101DF00003F10103BB60F889B989FA7CFB883C8D4B
:101E000000947C690194FFF74DFEFA897B699B88F9
:101E1000C3F5A0739A4216DA7B699A88FB89D318B6
:101E2000FB8197F82C30042B23D1BB681B78392B0E
:101E300004D9FB8903F1FF33FB811AE0FB89A3F18D
:101E40000203FB8115E0BA897B69DB88C3F5A073C7
:101E50009A4208DA4FF00003FB817B69DA88BB897C
:101E6000D318BB8105E04FF00003FB814FF0000366
:101E7000BB81BB681B78002BB6D107F11C07BD46A0
:101E800090BD00BF80B588B000AF786013460A46A9
:101E90007A803B804FF00003FB603B88002B03D02F
:101EA0004FF08003BB8202E04FF00003BB82BB8A8D
:101EB00003F13C037B8370E17B681B883B837B6879
:101EC00003F102037B603B8B372B02D94FF03703C2
:101ED0003B833B8BC3F1D103FB823B8B7B813B8BF1
:101EE000002B00F055817B88002B30D14FF0000390
:101EF000BB8329E0BB8B47F69012C2F2000203F6C7
:101F000018034FEA4303D3189B889BB27A8B9A42FB
:101F100016D1BB8B47F69012C2F2000203F61803EB
:101F20004FEA4303D3189B887B8345F69C13C2F288
:101F30000003D3F8B8307B824FF00103FB6006E06A
:101F4000BB8B03F10103BB83BB8B062BD2D947F6B6
:101F50009013C2F2000303F5825303F110031B78C0
:101F6000DBB2002B00F098804FF48053C4F20203E0
:101F70004FF480525A834FF07000FFF779F84FF01A
:101F80000000FFF775F84FF02000FFF771F84FF4ED
:101F90008053C4F202034FF480521A834FF48053EB
:101FA000C4F202034FF480525A834FF07200FFF7DD
:101FB0005FF8FB8A4FEA13239BB2DBB21846FFF7A8
:101FC00057F8FB8ADBB21846FFF752F84FF48053FC
:101FD000C4F202034FF480521A834FF48053C4F2C8
:101FE00002034FF480525A834FF07000FFF740F81D
:101FF0004FF00000FFF73CF84FF02100FFF738F8F2
:102000004FF48053C4F202034FF480521A834FF40A
:102010008053C4F202034FF480525A834FF072008F
:10202000FFF726F87B8B4FEA13239BB2DBB21846EF
:10203000FFF71EF87B8BDBB21846FFF719F84FF459
:102040008053C4F202034FF480521A834FF480533A
:10205000C4F202034FF480525A834FF07000FFF72E
:1020600007F84FF00000FFF703F84FF02200FEF7EB
:10207000FFFF4FF48053C4F202034FF480521A83DF
:102080004FF48053C4F202034FF480525A834FF04E
:102090007200FEF7EDFF07E07A8BFB8A10461946C7
:1020A000FFF778F9FFF712FA4FF00003FB8351E0D6
:1020B000FB68002B26D17B887B827B88002B21D17B
:1020C0004FF00003BB831AE0BB8B47F69012C2F2BD
:1020D000000203F502634FEA4303D3185B889BB207
:1020E000FA8A9A4207D145F69C13C2F20003D3F84C
:1020F000B8307B8206E0BB8B03F10103BB83BB8B53
:10210000022BE1D947F69013C2F2000303F5825384
:1021100003F110031B78DBB2002B0DD07B8A4FEA52
:1021200013239BB2DBB21846FEF7A2FF7B8ADBB219
:102130001846FEF79DFF05E04FF00003C6F20203CC
:102140007A8A1A80FB8A03F10103FB82FB8B03F17D
:102150000103FB83FA8B7B899A42A9D347F690133C
:10216000C2F2000303F5825303F110031B78DBB2C4
:10217000002B06D04FF48053C4F202034FF4805278
:102180001A83FB68002B04D04FF00003FB6000E0D3
:1021900000BF7B8B03F101037B837A8BBB8A03F146
:1021A000BC039A42FFF688AE07F12007BD4680BD0A
:1021B00080B58CB000AFF860B960FA80BB804FF09A
:1021C0000003BB613B8F002B03D04FF07F033B84A8
:1021D00002E04FF001033B843B8C03F13C037B8521
:1021E000D1E3FB681B883B85FB6803F10203FB60BE
:1021F000BB681B88FB84BB6803F10203BB603B8D9B
:102200003F2B02D94FF03F033B85FB8C3F2B02D97C
:102210004FF03F03FB843B8DC3F1D103BB843B8D67
:10222000FB82FB8CC3F1D1037B84FB8CBB823A8D98
:10223000FB8C9A4240F2CE81FB88002B40F0AA80B2
:102240004FF00003BB85A1E0BB8D47F69012C2F2B0
:10225000000203F618034FEA4303D3189B889BB28E
:102260007A8D9A4240F08E80BB8D47F69012C2F272
:10227000000203F618034FEA4303D3189B887B85BB
:1022800047F69013C2F2000303F5825303F11103E2
:102290001B78DBB2002B0AD0BB8D032B07D145F690
:1022A0009C13C2F20003B3F8BE30FB8366E045F630
:1022B0009C13C2F2000393F84C31DBB2022B16D10F
:1022C000BB8D042B13D147F69013C2F2000303F524
:1022D000825303F111031B78DBB2002B07D145F6C3
:1022E0009C13C2F20003B3F8BE30FB8346E045F610
:1022F0009C13C2F2000393F84C31DBB2012B16D1D0
:10230000BB8D022B13D147F69013C2F2000303F5E5
:10231000825303F111031B78DBB2002B07D145F682
:102320009C13C2F20003B3F8BE30FB8326E045F6EF
:102330009C13C2F2000393F84C31DBB2002B16D190
:10234000BB8D032B13D147F69013C2F2000303F5A4
:10235000825303F111031B78DBB2002B07D145F642
:102360009C13C2F20003B3F8BE30FB8306E045F6CF
:102370009C13C2F20003D3F8B830FB834FF0010383
:10238000BB6107E0BB8D03F10103BB85BB8D062B51
:102390007FF65AAF47F69013C2F2000303F582535B
:1023A00003F110031B78DBB2002B00F098804FF490
:1023B0008053C4F202034FF480525A834FF07000EE
:1023C000FEF756FE4FF00000FEF752FE4FF02000E1
:1023D000FEF74EFE4FF48053C4F202034FF48052D6
:1023E0001A834FF48053C4F202034FF480525A838D
:1023F0004FF07200FEF73CFEBB8C4FEA13239BB2FA
:10240000DBB21846FEF734FEBB8CDBB21846FEF793
:102410002FFE4FF48053C4F202034FF480521A830C
:102420004FF48053C4F202034FF480525A834FF0AA
:102430007000FEF71DFE4FF00000FEF719FE4FF092
:102440002100FEF715FE4FF48053C4F202034FF44F
:1024500080521A834FF48053C4F202034FF4805227
:102460005A834FF07200FEF703FE7B8D4FEA132371
:102470009BB2DBB21846FEF7FBFD7B8DDBB2184644
:10248000FEF7F6FD4FF48053C4F202034FF480527E
:102490001A834FF48053C4F202034FF480525A83DC
:1024A0004FF07000FEF7E4FD4FF00000FEF7E0FD96
:1024B0004FF02200FEF7DCFD4FF48053C4F202031C
:1024C0004FF480521A834FF48053C4F202034FF446
:1024D00080525A834FF07200FEF7CAFD07E07A8DF2
:1024E000BB8C10461946FEF755FFFEF7EFFFFB8C3D
:1024F000FB8551E0BB69002B26D1FB88FB83FB8861
:10250000002B21D14FF00003BB851AE0BB8D47F6AD
:102510009012C2F2000203F502634FEA4303D3189C
:102520005B889BB2BA8C9A4207D145F69C13C2F2E3
:102530000003D3F8B830FB8306E0BB8D03F1010341
:10254000BB85BB8D022BE1D947F69013C2F2000385
:1025500003F5825303F110031B78DBB2002B0DD07F
:10256000FB8B4FEA13239BB2DBB21846FEF780FDCC
:10257000FB8BDBB21846FEF77BFD05E04FF0000356
:10258000C6F20203FA8B1A80BB8C03F10103BB84F1
:10259000FB8D03F10103FB85FA8DFB8A9A42A9D3D7
:1025A00047F69013C2F2000303F5825303F11003C0
:1025B0001B78DBB2002B06D04FF48053C4F2020329
:1025C0004FF480521A83BB69002B04D04FF00003F4
:1025D000BB6100E000BFFB8C002B00F0CF81BB880B
:1025E000002B40F0AA804FF00003BB85A1E0BB8D1B
:1025F00047F69012C2F2000203F618034FEA4303B3
:10260000D3189B889BB27A8D9A4240F08E80BB8D06
:1026100047F69012C2F2000203F618034FEA430392
:10262000D3189B887B8547F69013C2F2000303F50D
:10263000825303F111031B78DBB2002B0AD0BB8D50
:10264000032B07D145F69C13C2F20003B3F8BE304A
:10265000FB8366E045F69C13C2F2000393F84C310D
:10266000DBB2022B16D1BB8D042B13D147F690138E
:10267000C2F2000303F5825303F111031B78DBB2AE
:10268000002B07D145F69C13C2F20003B3F8BE300D
:10269000FB8346E045F69C13C2F2000393F84C31ED
:1026A000DBB2012B16D1BB8D022B13D147F6901351
:1026B000C2F2000303F5825303F111031B78DBB26E
:1026C000002B07D145F69C13C2F20003B3F8BE30CD
:1026D000FB8326E045F69C13C2F2000393F84C31CD
:1026E000DBB2002B16D1BB8D032B13D147F6901311
:1026F000C2F2000303F5825303F111031B78DBB22E
:10270000002B07D145F69C13C2F20003B3F8BE308C
:10271000FB8306E045F69C13C2F20003D3F8B83001
:10272000FB834FF00103BB6107E0BB8D03F10103A5
:10273000BB85BB8D062B7FF65AAF47F69013C2F2CE
:10274000000303F5825303F110031B78DBB2002B67
:1027500000F098804FF48053C4F202034FF480528B
:102760005A834FF07000FEF783FC4FF00000FEF735
:102770007FFC4FF02000FEF77BFC4FF48053C4F247
:1027800002034FF480521A834FF48053C4F20203C1
:102790004FF480525A834FF07200FEF769FC7B8C35
:1027A0004FEA13239BB2DBB21846FEF761FC7B8C29
:1027B000DBB21846FEF75CFC4FF48053C4F2020310
:1027C0004FF480521A834FF48053C4F202034FF443
:1027D00080525A834FF07000FEF74AFC4FF0000021
:1027E000FEF746FC4FF02100FEF742FC4FF4805309
:1027F000C4F202034FF480521A834FF48053C4F2A0
:1028000002034FF480525A834FF07200FEF730FCFF
:102810007B8D4FEA13239BB2DBB21846FEF728FCF0
:102820007B8DDBB21846FEF723FC4FF48053C4F2D5
:1028300002034FF480521A834FF48053C4F2020310
:102840004FF480525A834FF07000FEF711FC4FF0A6
:102850000000FEF70DFC4FF02200FEF709FC4FF4DC
:102860008053C4F202034FF480521A834FF4805312
:10287000C4F202034FF480525A834FF07200FEF705
:10288000F7FB07E07A8D7B8C10461946FEF782FD38
:10289000FEF71CFE4FF00003FB8551E0BB69002BE7
:1028A00026D1BB88FB83BB88002B21D14FF00003CE
:1028B000BB851AE0BB8D47F69012C2F2000203F509
:1028C00002634FEA4303D3185B889BB27A8C9A4227
:1028D00007D145F69C13C2F20003D3F8B830FB834E
:1028E00006E0BB8D03F10103BB85BB8D022BE1D953
:1028F00047F69013C2F2000303F5825303F110036D
:102900001B78DBB2002B0DD0FB8B4FEA13239BB25D
:10291000DBB21846FEF7ACFBFB8BDBB21846FEF7CA
:10292000A7FB05E04FF00003C6F20203FA8B1A8002
:102930007B8C03F101037B84FB8D03F10103FB8599
:10294000FA8DBB8A9A42A9D347F69013C2F20003CC
:1029500003F5825303F110031B78DBB2002B06D082
:102960004FF48053C4F202034FF480521A83BB69C0
:10297000002B04D04FF00003BB6100E000BF7B8D53
:1029800003F101037B857A8D3B8C03F1BC039A42F2
:10299000FFF627AC07F13007BD4680BD80B582B099
:1029A00000AF4FF00000FEF7CBFC0346FB80FB8836
:1029B0004BF29070C0F60500194601F001FAFB8851
:1029C000002B02D14FF00103E6E3FA8849F22033ED
:1029D0009A4240F066814BF2A470C0F6050001F007
:1029E000EFF94FF0E5004FF40041FEF77DFC4FF0AA
:1029F00000004FF00101FEF777FC4FF001004FF4AB
:102A00008071FEF771FC4FF002004FF4E061FEF7B9
:102A10006BFC4FF0030041F23001FEF765FC4FF014
:102A200004004FF00001FEF75FFC4FF0080040F299
:102A30000221FEF759FC4FF009004FF00001FEF7AC
:102A400053FC4FF00A004FF00001FEF74DFC4FF031
:102A50000C004FF00001FEF747FC4FF00D004FF067
:102A60000001FEF741FC4FF00F004FF00001FEF7B0
:102A70003BFC4FF010004FF00001FEF735FC4FF02B
:102A800011004FF00001FEF72FFC4FF012004FF045
:102A90000001FEF729FC4FF013004FF00001FEF794
:102AA00023FC49F2E030C0F20400FEF70FF84FF0CB
:102AB000100041F2B071FEF717FC4FF0110040F228
:102AC0003711FEF711FC48F2A060C0F20100FDF7DB
:102AD000FDFF4FF0120040F23911FEF705FC48F2FD
:102AE000A060C0F20100FDF7F1FF4FF013004FF4BA
:102AF000E851FEF7F9FB4FF029004FF01301FEF704
:102B0000F3FB48F2A060C0F20100FDF7DFFF4FF0D9
:102B100020004FF00001FEF7E7FB4FF021004FF0DF
:102B20000001FEF7E1FB4FF030004FF00701FEF728
:102B3000DBFB4FF031004FF00701FEF7D5FB4FF004
:102B400032004FF00701FEF7CFFB4FF035004FF09A
:102B50000701FEF7C9FB4FF036004FF00701FEF703
:102B6000C3FB4FF037004FF4E061FEF7BDFB4FF0C1
:102B700038004FF4E061FEF7B7FB4FF039004FF437
:102B8000E061FEF7B1FB4FF03C004FF4E061FEF76F
:102B9000ABFB4FF03D004FF4F851FEF7A5FB4FF0B3
:102BA00050004FF00001FEF79FFB4FF051004FF037
:102BB000EF01FEF799FB4FF052004FF00001FEF7D6
:102BC00093FB4FF0530040F23F11FEF78DFB4FF0A7
:102BD00060004FF42741FEF787FB4FF061004FF094
:102BE0000101FEF781FB4FF06A004FF00001FEF794
:102BF0007BFB4FF080004FF00001FEF775FB4FF0BC
:102C000081004FF00001FEF76FFB4FF082004FF0A4
:102C10000001FEF769FB4FF083004FF00001FEF763
:102C200063FB4FF084004FF00001FEF75DFB4FF0B7
:102C300085004FF00001FEF757FB4FF090004FF07A
:102C40001001FEF751FB4FF092004FF00001FEF72C
:102C50004BFB4FF093004FF00301FEF745FB4FF0A5
:102C600095004FF48871FEF73FFB4FF097004FF04F
:102C70000001FEF739FB4FF098004FF00001FEF71E
:102C800033FB4FF0030041F23001FEF72DFB4FF014
:102C9000070040F27311FEF727FB4CF25030FDF7AE
:102CA00015FFFA8845F208439A4240F0EC804BF257
:102CB000BC70C0F6050001F083F84FF001004FF042
:102CC0000001FEF711FB4FF002004FF4E061FEF748
:102CD0000BFB4FF0030041F23001FEF705FB4FF014
:102CE00004004FF00001FEF7FFFA4FF0080040F239
:102CF0000721FEF7F9FA4FF009004FF00001FEF747
:102D0000F3FA4FF00A004FF00001FEF7EDFA4FF032
:102D10000C004FF00001FEF7E7FA4FF00D004FF006
:102D20000001FEF7E1FA4FF00F004FF00001FEF74F
:102D3000DBFA4CF25030FDF7C9FE4FF0070040F2CD
:102D40000111FEF7D1FA4CF25030FDF7BFFE4FF003
:102D5000100041F2B061FEF7C7FA4FF011004FF0DA
:102D60000101FEF7C1FA4FF017004FF00101FEF725
:102D7000BBFA4FF012004FF49C71FEF7B5FA4FF01A
:102D800013004FF40061FEF7AFFA4FF029004FF047
:102D90000901FEF7A9FA4FF02A004FF00901FEF7EA
:102DA000A3FA4FF0A4004FF00001FEF79DFA4FF098
:102DB00050004FF00001FEF797FA4FF051004FF02E
:102DC000EF01FEF791FA4FF052004FF00001FEF7CD
:102DD0008BFA4FF0530040F23F11FEF785FA4FF0A7
:102DE00060004FF41C51FEF77FFA4FF061004FF086
:102DF0000301FEF779FA4FF06A004FF00001FEF789
:102E000073FA4FF080004FF00001FEF76DFA4FF0BB
:102E100081004FF00001FEF767FA4FF082004FF09B
:102E20000001FEF761FA4FF083004FF00001FEF75A
:102E30005BFA4FF084004FF00001FEF755FA4FF0B7
:102E400085004FF00001FEF74FFA4FF090004FF071
:102E50001301FEF749FA4FF092004FF00001FEF720
:102E600043FA4FF093004FF00301FEF73DFA4FF0A5
:102E700095004FF48871FEF737FA4FF0070040F2E3
:102E80007311FEF731FAFA8849F225339A4205D0D8
:102E9000FA8849F228339A4240F07A814BF2D47092
:102EA000C0F6050000F08CFF4FF0E7004FF0100176
:102EB000FEF71AFA4FF000004FF00101FEF714FA86
:102EC0004FF001004FF00001FEF70EFA4FF0020044
:102ED0004FF4E061FEF708FA4FF0030041F23001D1
:102EE000FEF702FA4FF004004FF00001FEF7FCF984
:102EF0004FF0080040F20721FEF7F6F94FF0090005
:102F00004FF00001FEF7F0F94FF00A004FF000011A
:102F1000FEF7EAF94FF00C004FF00101FEF7E4F97B
:102F20004FF00D004FF00001FEF7DEF94FF00F00FB
:102F30004FF00001FEF7D8F94FF010004FF00001FC
:102F4000FEF7D2F94FF011004FF00701FEF7CCF970
:102F50004FF012004FF00001FEF7C6F94FF01300DA
:102F60004FF00001FEF7C0F948F2A060C0F2010086
:102F7000FDF7ACFD4FF0100041F29051FEF7B4F9AF
:102F80004FF0110040F22721FEF7AEF948F2A060A1
:102F9000C0F20100FDF79AFD4FF012004FF09C01C6
:102FA000FEF7A2F948F2A060C0F20100FDF78EFD25
:102FB0004FF013004FF4C851FEF796F94FF0290077
:102FC0004FF02301FEF790F94FF02B004FF00E0168
:102FD000FEF78AF948F2A060C0F20100FDF776FD25
:102FE0004FF020004FF00001FEF77EF94FF0210076
:102FF0004FF00001FEF778F948F2A060C0F201003E
:10300000FDF764FD4FF030004FF00701FEF76CF95B
:103010004FF0310040F20771FEF766F94FF03200D1
:103020004FF00601FEF760F94FF0350040F20471F1
:10303000FEF75AF94FF0360041F60471FEF754F9E5
:103040004FF037004FF00401FEF74EF94FF0380013
:103050004FF00001FEF748F94FF0390040F20671D9
:10306000FEF742F94FF03C0040F20171FEF73CF9E7
:103070004FF03D004FF00F01FEF736F948F2A06027
:10308000C0F20100FDF722FD4FF050004FF00001AB
:10309000FEF72AF94FF051004FF0EF01FEF724F947
:1030A0004FF052004FF00001FEF71EF94FF05300B1
:1030B00040F23F11FEF718F94FF060004FF427413E
:1030C000FEF712F94FF061004FF00101FEF70CF925
:1030D0004FF06A004FF00001FEF706F94FF0800054
:1030E0004FF00001FEF700F94FF081004FF00001B2
:1030F000FEF7FAF84FF082004FF00001FEF7F4F807
:103100004FF083004FF00001FEF7EEF84FF084001F
:103110004FF00001FEF7E8F84FF085004FF0000196
:10312000FEF7E2F84FF090004FF01001FEF7DCF8E8
:103130004FF092004FF00001FEF7D6F84FF09300E9
:103140004FF00301FEF7D0F84FF095004FF488716F
:10315000FEF7CAF84FF097004FF00001FEF7C4F8F1
:103160004FF098004FF00001FEF7BEF84FF0070057
:1031700040F23311FEF7B8F84FF020004FF0000195
:10318000FEF7B2F84FF021004FF00001FEF7ACF867
:1031900000F008F84FF00003184607F10807BD4695
:1031A00080BD00BF80B400AFBD4680BC704700BF8B
:1031B00080B500AFFDF7AAFC47F69013C2F20003FA
:1031C00003F5825303F110034FF000021A70FDF76C
:1031D000BBFDFDF7F5FEFDF7C9FEFFF7DFFB4FF086
:1031E0000003184680BD00BFB0B5A4B004AF78603E
:1031F0004FF00000FEF7E6F807F10C024BF2EC731B
:10320000C0F6050314461D460FCD0FC495E8030014
:10321000206004F10404217007F10C034FF0000258
:1032200000924FF0010201924FF002004FF01E0198
:103230001A4647F6FF73FEF79FFD07F10C024BF6A7
:103240000403C0F6050314461D460FCD0FC495E8D0
:103250000F0007C4238007F10C034FF00002009217
:103260004FF0000201924FF024004FF03C011A464B
:103270004FF6FF73FEF780FD07F10C034FF00002DD
:1032800000924FF00B02019218464BF62401C0F653
:1032900005014FF0DB024FF0160300F0A7FD07F128
:1032A0000C034FF0000200924FF0000201924FF029
:1032B0006E004FF050011A464AF25553FEF75CFD7E
:1032C00007F172034FF08400194621F071FBB7F843
:1032D0007230DBB2002B23D107F10C024BF6340322
:1032E000C0F6050314461D460FCD0FC40FCD0FC405
:1032F00095E80300206004F10404218007F10C0329
:103300004FF0000200924FF0000201924FF01000C7
:103310004FF06E011A464FF61863FEF72DFD20E0C0
:1033200007F10C024BF65C03C0F6050314461D467C
:103330000FCD0FC495E80300206004F10404217050
:1033400007F10C034FF0000200924FF000020192CF
:103350004FF050004FF06E011A464AF25553FEF7F7
:103360000BFD47F69013C2F2000303F5825303F1FD
:1033700010031B78DBB2002B12D007F10C024BF6C6
:103380007403C0F6050314461D460FCD0FC42B6809
:103390001A46228004F102044FEA1343237011E01D
:1033A00007F10C024BF68803C0F6050314461D46D0
:1033B0000FCD0FC42B681A46228004F102044FEA95
:1033C0001343237007F10C034FF0000200924FF0FB
:1033D000000201924FF058004FF07D011A4648F26A
:1033E0001043FEF7C9FC49F2F023C2F20103D3ED0A
:1033F000077AB0EE670A40F08BFAF0EE407AFDEE05
:10340000E77AC7ED1F7A49F2F023C2F2010393ED88
:10341000077AD7ED1F7AF8EEE77A37EE677ADFEDB5
:10342000997A67EE277AB0EE670A40F071FAF0EE0B
:10343000407AFDEEE77AC7ED1E7A07F10C024BF6F3
:10344000C403C0F605030093BB6F01934BF6C8039A
:10345000C0F60503029310464BF69C01C0F6050129
:103460004BF6A802C0F60502FB6F00F0BFFC07F1A7
:103470000C034FF0000200924FF0000201924FF057
:103480000F004FF08C011A4648F21043FEF774FC0F
:1034900045F69C13C2F20003B3F8B0309BB2082B80
:1034A00022D045F69C13C2F20003B3F8B0309BB2B1
:1034B00007F10C0210464BF6D001C0F605011A4682
:1034C00000F094FC07F10C034FF0000200924FF063
:1034D000000201924FF03C004FF09B011A464FF65C
:1034E000FF73FEF749FC41E04FF40450C4F20100C1
:1034F0000AF048F80346A7F876304FF40850C4F2B3
:1035000001000AF03FF80346A7F87430B7F87630A8
:103510004B2B2BD9B7F874304B2B27D907F10C0262
:103520004BF6EC03C0F6050314461D460FCD0FC441
:103530000FCD0FC495E80300206004F1040421803E
:1035400004F102044FEA1143237007F10C034FF01A
:10355000000200924FF0000201924FF008004FF07D
:103560009B011A464FF61863FEF706FC07F10C02A2
:103570004BF61413C0F6050314461D460FCD0FC4B9
:1035800095E8070084E8070007F10C034FF00002FC
:1035900000924FF0000201924FF036004FF0C3014D
:1035A0001A4648F21043FEF7E7FB07F10C024BF610
:1035B0003013C0F6050314461D460FCD0FC495E821
:1035C0000F0007C4238004F102044FEA1343237061
:1035D00007F10C034FF0000200924FF0000201923D
:1035E0004FF02A004FF0D2011A4648F21043FEF77E
:1035F000C3FB07F10C024BF65013C0F6050314464B
:103600001D460FCD0FC495E8070003C4228007F1C3
:103610000C034FF0000200924FF0000201924FF0B5
:103620003C004FF0E1011A4648F21043FEF7A4FBBC
:103630004FF44063C4F202034FF004021A834FF0C8
:103640000003A7F8723012E04FF0000402E000BF60
:1036500004F1010444F23F23C0F20F039C42F6D967
:10366000B7F8723003F101039BB2A7F87230B7F8D4
:1036700072301A467B689A42E6D307F18007BD464E
:10368000B0BD00BF00401C4680B483B000AF03460D
:10369000FB7107F10C07BD4680BC704780B483B056
:1036A00000AF78600B46FB707B68FA781A704FF0B9
:1036B0000103184607F10C07BD4680BC704700BFE8
:1036C00080B485B000AF786039604FF00003FB60D4
:1036D0000FE03B681A787B681A707B6803F101037E
:1036E0007B603B6803F101033B60FB6803F101036E
:1036F000FB603B681B78002BEBD1FB68184607F199
:103700001407BD4680BC704780B586B000AFF86036
:103710007A603B600B46FB724FF000037B617B6875
:1037200003F1FF337B603B68092B25D93A684CF6DF
:10373000CD43CCF6CC43A3FB02134FEAD303FA7A72
:10374000F86811467A68FFF7DFFF78617B69FA68ED
:10375000D318FB6013E0FB7AF8681946FFF79EFF69
:10376000FB6803F10103FB607B6903F101037B61EB
:103770007B6803F1FF337B607B68002BEBDC3968EF
:103780004CF6CD43CCF6CC43A3FB01234FEAD30246
:1037900013464FEA83039B184FEA4303CA1AD3B276
:1037A00003F13003DBB2F8681946FFF777FF0346F1
:1037B0007A69D3187B617B69184607F11807BD4603
:1037C00080BD00BF80B586B000AFF8607A603B6016
:1037D0000B46FB724FF000037B613B68002B04DA61
:1037E0003B68C3F100033B6101E03B683B617B68E0
:1037F00003F1FF337B603B69092B2AD93B68002B1F
:1038000012DA3A694CF6CD43CCF6CC43A3FB021353
:103810004FEAD303C3F10003FA7AF86811467A68D5
:10382000FFF7D0FF78610FE03A694CF6CD43CCF654
:10383000CC43A3FB02134FEAD303FA7AF86811468C
:103840007A68FFF7BFFF78617B69FA68D318FB607D
:103850002BE03B68002B15DA7B6803F1FF337B60BC
:1038600010E0FB7AF8681946FFF718FFFB6803F1D0
:103870000103FB607B6903F101037B617B6803F15A
:10388000FF337B607B68002BEBDC3B68002B0CDAA2
:10389000F8684FF02D01FFF701FF03467A69D3184E
:1038A0007B61FB6803F10103FB6039694CF6CD4392
:1038B000CCF6CC43A3FB01234FEAD30213464FEAD5
:1038C00083039B184FEA4303CA1AD3B203F13003B0
:1038D000DBB2F8681946FFF7E1FE03467A69D318B0
:1038E0007B617B69184607F11807BD4680BD00BFA4
:1038F00080B588B002AFF8607A600A46FA72BB728F
:103900004FF000037B617B6803F1FF337B603B6A10
:103910004FEA1313002B24D03B6A4FEA1311FA7AB3
:10392000BB7A0091F86811467A68FFF7E1FF034619
:103930007A69D3187B617B69FA68D318FB6013E05E
:10394000FB7AF8681946FFF7A9FEFB6803F101034B
:10395000FB607B6903F101037B617B6803F1FF334B
:103960007B607B68002BEBDC3B6A03F00F03092BC9
:103970000CD83B6ADBB203F00F03DBB203F1300378
:10398000DBB2F8681946FFF789FE1BE0BB7A002B13
:103990000CD03B6ADBB203F00F03DBB203F1370359
:1039A000DBB2F8681946FFF779FE0BE03B6ADBB241
:1039B00003F00F03DBB203F15703DBB2F8681946DB
:1039C000FFF76CFE7B6903F101037B617B6918469D
:1039D00007F11807BD4680BD80B58AB002AFF86018
:1039E000B9607A603B604FF00003BB614FF00003A9
:1039F0007B61FB68002B00F01C81FB684FF000022C
:103A00001A7016E17B681B78252B10D07B681A781A
:103A1000FB681A70FB6803F10103FB607B6803F12C
:103A200001037B607B6903F101037B6102E17B6839
:103A300003F101031B78252B10D1FB684FF0250201
:103A40001A70FB6803F10103FB607B6803F102035A
:103A50007B607B6903F101037B61EBE04FF02003A6
:103A6000FB774FF00003BB777B6803F101037B60BA
:103A70007B681B78302B1BD14FF03003FB777B68C2
:103A800003F101037B6013E0BB7F1A464FEA820219
:103A9000D3184FEA4303DAB27B681B78D318DBB242
:103AA000A3F13003BB777B6803F101037B6000E087
:103AB00000BF7B681B782F2B03D97B681B78392BC1
:103AC000E2D9BA7F7B69D3181A46BB689A4205D9F6
:103AD000BB68DAB27B69DBB2D31ABB777B681B7831
:103AE000A3F15803202B00F2948001A252F823F096
:103AF000C53B0108133C0108133C0108133C0108B5
:103B0000133C0108133C0108133C0108133C010855
:103B1000133C0108133C0108133C0108FB3B01085E
:103B2000753B0108133C0108133C0108133C0108D4
:103B3000133C0108753B0108133C0108133C0108C4
:103B4000133C0108133C0108133C0108133C010815
:103B5000133C0108133C0108133C0108E53B010834
:103B6000133C01088D3B0108133C0108133C01087C
:103B7000A53B0108BA7F3B6803F1040139601B686B
:103B8000F97FF868FFF71EFEB86145E0BA7F3B6831
:103B900003F1040139601B68F97FF868FFF7B4FD91
:103BA000B86139E0BA7F3B6803F1040139601968F4
:103BB000FB7F0091F86819464FF00003FFF798FE6D
:103BC000B86129E0BA7F3B6803F1040139601968E4
:103BD000FB7F0091F86819464FF00103FFF788FE5C
:103BE000B86119E03B6803F104023A601B68F868A9
:103BF0001946FFF765FDB8610EE03B6803F104026A
:103C00003A601B68DBB2F8681946FFF747FDB861F8
:103C100002E04FF0FF332CE07B6803F101037B608F
:103C2000BB69FA68D318FB607A69BB69D3187B61FA
:103C300000E000BF7B681B78002B04D07A69BB686A
:103C40009A42FFF4DFAE7A69BB689A4204D2FB68FD
:103C50004FF000021A700BE0FB6803F1FF33FB60CA
:103C6000FB684FF000021A707B6903F1FF337B6140
:103C70007B69184607F12007BD4680BD0CB480B5AE
:103C800084B000AF7860396007F11C03BB607868CE
:103C90003968BA69BB68FFF79FFEF860FB68184691
:103CA00007F11007BD46BDE8804002B0704700BF75
:103CB00080B584B000AFF860B9607A60F8684FF4FE
:103CC0009671BA687B68FFF787FE0346184607F1CE
:103CD0001007BD4680BD00BFB0B5D8B000AF07F13A
:103CE0000C03186007F10803196007F104031A6058
:103CF00007F110024BF66C13C0F6050314461D467F
:103D00000FCD0FC40FCD0FC42B68236007F1340112
:103D100007F1080207F10403084611681A68FFF763
:103D2000C7FF024640F22B139A420CDD40F2C863F3
:103D3000C2F200031B68DB6807F110021046194647
:103D400000F0A6F8FEE707F1340207F10C03104675
:103D5000196800F09DF80346184607F5B077BD4690
:103D6000B0BD00BF80B582B000AF7860396040F26E
:103D7000C863C2F200031B689B68184679683A68FA
:103D8000FFF7AAFF0346184607F10807BD4680BDA6
:103D90000EB480B585B000AF786007F12003BB603A
:103DA0007868F969BA68FFF797FFF860FB6818460A
:103DB00007F11407BD46BDE8804003B0704700BF5F
:103DC0000FB480B582B000AF07F114033B603869CF
:103DD0003968FFF7C7FF78607B68184607F1080766
:103DE000BD46BDE8804004B0704700BF0EB480B54A
:103DF00085B000AF786007F12003BB607868F9698F
:103E0000BA68FFF755FFF860FB68184607F114071A
:103E1000BD46BDE8804003B0704700BF80B582B0AA
:103E200000AF786040F2C863C2F200031B689B6871
:103E30007868194600F02CF80346184607F1080781
:103E4000BD4680BD80B582B000AF7860396040F279
:103E5000C863C2F200031B689A683B689A4208D0A4
:103E600040F2C863C2F200031B68DA683B689A42FA
:103E700006D17B68DBB21846FFF706FC7B6801E0E1
:103E80004FF0FF33184607F10807BD4680BD00BF5D
:103E900080B584B000AF786039604FF00003FB60FC
:103EA00014E07B681B7818463968FFF7CBFF0346A0
:103EB000B3F1FF3F02D14FF0FF330CE0FB6803F199
:103EC0000103FB607B6803F101037B607B681B7867
:103ED000002BE6D1FB68184607F11007BD4680BDF0
:103EE00080B500AF4FF480404FF0010100F0BCFD01
:103EF0004FF480404FF0000100F0B6FD80BD00BFE0
:103F000080B483B000AF0346FB714FF46053C4F23A
:103F10000103FA791A6007F10C07BD4680BC7047AF
:103F200090B484B000AF02460B46FA71BB714FF0FB
:103F30000003FB60BB7903F003034FEA83034FF0F8
:103F40000F0202FA03F3FB604FF46053C4F2010363
:103F5000BA794FEA9202D2B210464FF46052C4F2DC
:103F60000102B9794FEA9101C9B201F1020152F897
:103F70002110FA686FEA0202114000F1020243F8D0
:103F800022104FF46053C4F20103BA794FEA92024F
:103F9000D2B210464FF46052C4F20102B9794FEA2E
:103FA0009101C9B201F1020152F82110FC79BA79EC
:103FB00002F003024FEA820204FA02F2114300F116
:103FC000020243F8221007F11007BD4690BC70476B
:103FD00080B483B000AF78604FF0DC03C4F22723D5
:103FE0007A681A6007F10C07BD4680BC704700BFB5
:103FF00080B483B000AF0346FB714FF48063C4F21A
:104000002723FA791A6007F10C07BD4680BC704778
:1040100080B483B000AF4FF00003FB714FF46053E6
:10402000C4F201031B6A03F48073002B03D04FF02A
:104030000103FB7102E04FF00003FB71FB791846AE
:1040400007F10C07BD4680BC704700BF80B400AFCD
:104050004FF46053C4F202034FF46052C4F2020200
:10406000126842F001021A604FF46053C4F2020376
:104070004FF000029A604FF46053C4F202034FF411
:104080006052C4F20202126822F0847222F480327A
:104090001A604FF46053C4F2020343F21002C2F2FA
:1040A00000425A604FF46053C4F202034FF460526E
:1040B000C4F20202126822F480221A604FF46053A4
:1040C000C4F202034FF00002DA60BD4680BC7047C4
:1040D00080B483B000AF0346FB7143F60203C4F221
:1040E00002034FF000021A7043F60203C4F2020307
:1040F000FA791A7007F10C07BD4680BC704700BF03
:1041000080B582B000AF4FF000033B604FF000037A
:10411000FB714FF00003BB714FF0310000F0D0FD98
:104120000346BB713B6803F101033B603B68B3F599
:10413000A06F02D0BB79002BEED04FF0310000F021
:10414000BFFD0346002B03D04FF00103FB7102E0DB
:104150004FF00003FB71FB79184607F10807BD46D5
:1041600080BD00BF80B485B000AF0346FB714FF047
:104170000003FB604FF46053C4F202031B68FB6052
:10418000FB6823F0F803FB60FB794FEAC303FA688E
:104190001343FB604FF46053C4F20203FA681A60E1
:1041A00007F11407BD4680BC704700BF80B483B0E0
:1041B00000AF0346FB714FF00003C4F24723FA79C6
:1041C0001A6007F10C07BD4680BC704780B483B00D
:1041D00000AF0346FB7143F67003C4F202034FF0D5
:1041E00000021A7043F67003C4F202034FF000029B
:1041F0001A70FB79012B02D0042B08D00FE043F694
:104200007003C4F202034FF001021A7008E043F693
:104210007003C4F202034FF005021A7000E000BF01
:1042200007F10C07BD4680BC704700BF80B483B067
:1042300000AF0346FB714FF46863C4F24723FA7979
:104240001A6007F10C07BD4680BC704780B485B08A
:1042500000AFF860B9607A603B604FF46053C4F21D
:1042600002037A684FEA8211BA6811433A684FEA4A
:10427000520202F1FF324FEA02421143FA6811433F
:10428000BA694FEA02620A435A6007F11407BD4651
:1042900080BC704780B483B000AF0346FB714FF021
:1042A0006003C4F24723FA791A6007F10C07BD4690
:1042B00080BC704780B483B000AF786039604FF441
:1042C0006053C4F202037A684FEA82113A684FEAF7
:1042D00002720A43C3F8842007F10C07BD4680BC74
:1042E000704700BF80B483B000AF0346FB714FF04E
:1042F0006803C4F24723FA791A6007F10C07BD4638
:1043000080BC704780B483B000AF0346FB714FF0B0
:104310004C03C4F24723FA791A6007F10C07BD4633
:1043200080BC704780B485B000AF786039604FF0D2
:104330000003FB604FF46053C4F202039B68FB6010
:10434000FB6823F0EC63FB607A683B681343FA6810
:104350001343FB604FF46053C4F20203FA689A609F
:1043600007F11407BD4680BC704700BF80B485B01C
:1043700000AF786039604FF00003FB604FF460538A
:10438000C4F202039B68FB60FB6823F07843FB6088
:104390007A683B681343FA681343FB604FF4605339
:1043A000C4F20203FA689A6007F11407BD4680BCA4
:1043B000704700BF80B485B000AF78604FF0000355
:1043C000FB604FF46053C4F202039B68FB60FB6820
:1043D00023F00303FB60FA687B681343FB604FF430
:1043E0006053C4F20203FA689A6007F11407BD46ED
:1043F00080BC704780B400AF4FF46053C4F2020336
:104400009B68DBB203F00C03DBB21846BD4680BCF0
:10441000704700BF80B485B000AF78604FF00003F4
:10442000FB604FF46053C4F202039B68FB60FB68BF
:1044300023F0F003FB60FA687B681343FB604FF4E2
:104440006053C4F20203FA689A6007F11407BD468C
:1044500080BC704780B485B000AF78604FF0000337
:10446000FB604FF46053C4F202039B68FB60FB687F
:1044700023F4E053FB60FA687B681343FB604FF45E
:104480006053C4F20203FA689A6007F11407BD464C
:1044900080BC704780B485B000AF78604FF00003F7
:1044A000FB604FF46053C4F202039B68FB60FB683F
:1044B00023F46043FB607B684FEAC303FA6813434D
:1044C000FB604FF46053C4F20203FA689A6007F18C
:1044D0001407BD4680BC704780B489B000AF7860D7
:1044E0004FF00003BB614FF000037B614FF000030E
:1044F000FB614FF002033B614FF00003FB604FF0A4
:104500000203BB604FF46053C4F202039B6803F0E4
:104510000C03BB61BB69042B0AD0082B0FD0002B06
:1045200060D17A684FF41053C0F2F403136060E076
:104530007A684FF41053C0F2F403136059E04FF45B
:104540006053C4F202035B6803F480034FEA9353A1
:10455000FB604FF46053C4F202035B6803F03F0357
:10456000BB60FB68002B14D04FF41053C0F2F4036F
:10457000BA68B3FBF2F24FF46053C4F20203596815
:1045800047F6C0730B404FEA931303FB02F3FB6142
:1045900013E04FF41053C0F2F403BA68B3FBF2F225
:1045A0004FF46053C4F20203596847F6C0730B40DE
:1045B0004FEA931303FB02F3FB614FF46053C4F221
:1045C00002035B6803F440334FEA134303F1010332
:1045D0004FEA43033B61FA693B69B2FBF3F27B6844
:1045E0001A6006E07A684FF41053C0F2F4031360C7
:1045F00000BF4FF46053C4F202039B6803F0F00362
:10460000BB61BB694FEA1313BB614BF69013C0F655
:104610000503BA699B181B787B617B681A687B6904
:1046200022FA03F27B685A604FF46053C4F202032B
:104630009B6803F4E053BB61BB694FEA9323BB6102
:104640004BF69013C0F60503BA699B181B787B6183
:104650007B685A687B6922FA03F27B689A604FF4A0
:104660006053C4F202039B6803F46043BB61BB69FF
:104670004FEA5333BB614BF69013C0F60503BA699A
:104680009B181B787B617B685A687B6922FA03F26E
:104690007B68DA6007F12407BD4680BC704700BF25
:1046A00080B485B000AF78604FF00003FB607B689A
:1046B00003F44073B3F5407F17D14FF46053C4F255
:1046C00002039B68FB60FB6823F4F813FB607B68C4
:1046D00023F0704323F44073FA681343FB604FF4F4
:1046E0006053C4F20203FA689A604FF46053C4F254
:1046F00002034FF46052C4F20202116F7A684FEA6B
:1047000002524FEA12520A431A6707F11407BD46D4
:1047100080BC704780B483B000AF0346FB7140F6A5
:104720003C63C4F24723FA791A6007F10C07BD46CF
:1047300080BC704780B483B000AF0346FB714FF478
:104740006463C4F24723FA791A6007F10C07BD4687
:1047500080BC704780B483B000AF78604FF4AE7314
:10476000C4F247237A681A6007F10C07BD4680BC83
:10477000704700BF80B483B000AF78600B46FB7019
:10478000FB78002B0CD04FF46053C4F202034FF4BB
:104790006052C4F20202116B7A680A431A630DE098
:1047A0004FF46053C4F202034FF46052C4F20202A9
:1047B000116B7A686FEA02020A401A6307F10C076C
:1047C000BD4680BC704700BF80B483B000AF786046
:1047D0000B46FB70FB78002B0CD04FF46053C4F2F7
:1047E00002034FF46052C4F20202516B7A680A432A
:1047F0005A630DE04FF46053C4F202034FF4605269
:10480000C4F20202516B7A686FEA02020A405A63EC
:1048100007F10C07BD4680BC704700BF80B483B071
:1048200000AF78600B46FB70FB78002B0CD04FF488
:104830006053C4F202034FF46052C4F20202916B5F
:104840007A680A439A630DE04FF46053C4F202039E
:104850004FF46052C4F20202916B7A686FEA02026E
:104860000A409A6307F10C07BD4680BC704700BF41
:1048700080B483B000AF78600B46FB70FB78002BF0
:104880000CD04FF46053C4F202034FF46052C4F2F0
:104890000202116C7A680A431A640DE04FF4605307
:1048A000C4F202034FF46052C4F20202116C7A683F
:1048B0006FEA02020A401A6407F10C07BD4680BC89
:1048C000704700BF80B483B000AF78600B46FB70C8
:1048D000FB78002B0CD04FF46053C4F202034FF46A
:1048E0006052C4F20202516C7A680A435A640DE0C5
:1048F0004FF46053C4F202034FF46052C4F2020258
:10490000516C7A686FEA02020A405A6407F10C0798
:10491000BD4680BC704700BF80B483B000AF7860F4
:104920000B46FB70FB78002B0CD04FF46053C4F2A5
:1049300002034FF46052C4F2020211697A680A431A
:104940001A610DE04FF46053C4F202034FF4605259
:10495000C4F2020211697A686FEA02020A401A611F
:1049600007F10C07BD4680BC704700BF80B483B020
:1049700000AF78600B46FB70FB78002B0CD04FF437
:104980006053C4F202034FF46052C4F20202516950
:104990007A680A435A610DE04FF46053C4F202038F
:1049A0004FF46052C4F2020251697A686FEA02025F
:1049B0000A405A6107F10C07BD4680BC704700BF32
:1049C00080B483B000AF78600B46FB70FB78002B9F
:1049D0000CD04FF46053C4F202034FF46052C4F29F
:1049E000020291697A680A439A610DE04FF46053BC
:1049F000C4F202034FF46052C4F2020291697A6871
:104A00006FEA02020A409A6107F10C07BD4680BCBA
:104A1000704700BF80B483B000AF78600B46FB7076
:104A2000FB78002B0CD04FF46053C4F202034FF418
:104A30006052C4F20202116A7A680A431A620DE0F7
:104A40004FF46053C4F202034FF46052C4F2020206
:104A5000116A7A686FEA02020A401A6207F10C07CB
:104A6000BD4680BC704700BF80B483B000AF7860A3
:104A70000B46FB70FB78002B0CD04FF46053C4F254
:104A800002034FF46052C4F20202516A7A680A4388
:104A90005A620DE04FF46053C4F202034FF46052C7
:104AA000C4F20202516A7A686FEA02020A405A624C
:104AB00007F10C07BD4680BC704700BF80B483B0CF
:104AC00000AF78600B46FB70FB78002B0CD04FF4E6
:104AD0006053C4F202034FF46052C4F20202116D3B
:104AE0007A680A431A650DE04FF46053C4F202037A
:104AF0004FF46052C4F20202116D7A686FEA02024A
:104B00000A401A6507F10C07BD4680BC704700BF1C
:104B100080B483B000AF78600B46FB70FB78002B4D
:104B20000CD04FF46053C4F202034FF46052C4F24D
:104B30000202516D7A680A435A650DE04FF46053E2
:104B4000C4F202034FF46052C4F20202516D7A685B
:104B50006FEA02020A405A6507F10C07BD4680BCA5
:104B6000704700BF80B483B000AF78600B46FB7025
:104B7000FB78002B0CD04FF46053C4F202034FF4C7
:104B80006052C4F20202916D7A680A439A650DE0A0
:104B90004FF46053C4F202034FF46052C4F20202B5
:104BA000916D7A686FEA02020A409A6507F10C0774
:104BB000BD4680BC704700BF80B483B000AF786052
:104BC0000B46FB70FB78002B0CD04FF46053C4F203
:104BD00002034FF46052C4F20202116E7A680A4373
:104BE0001A660DE04FF46053C4F202034FF46052B2
:104BF000C4F20202116E7A686FEA02020A401A6673
:104C000007F10C07BD4680BC704700BF80B483B07D
:104C100000AF78600B46FB70FB78002B0CD04FF494
:104C20006053C4F202034FF46052C4F20202516EA8
:104C30007A680A435A660DE04FF46053C4F20203E7
:104C40004FF46052C4F20202516E7A686FEA0202B7
:104C50000A405A6607F10C07BD4680BC704700BF8A
:104C600080B483B000AF02460B46FA71BB71BB79CA
:104C7000002B0ED043F60D03C4F2020343F60D02DF
:104C8000C4F202021278D1B2FA790A43D2B21A708F
:104C900010E043F60D03C4F2020343F60D02C4F222
:104CA00002021278D1B2FA796FEA0202D2B20A4055
:104CB000D2B21A7007F10C07BD4680BC704700BF26
:104CC00080B487B000AF0346FB714FF00003FB6078
:104CD0004FF000037B614FF00003FB74FB794FEA58
:104CE0005313DBB2FB60FB68012B06D14FF460531A
:104CF000C4F202031B687B610FE0FB68022B06D144
:104D00004FF46053C4F202031B6F7B6105E04FF464
:104D10006053C4F202035B6F7B61FB7903F01F03F6
:104D2000FB60FB687A6922FA03F303F00103002BAE
:104D300003D04FF00103FB7402E04FF00003FB745B
:104D4000FB7C184607F11C07BD4680BC704700BFBE
:104D500080B400AF4FF46053C4F202034FF46052CA
:104D6000C4F20202526F42F080725A67BD4680BCA4
:104D7000704700BF80B485B000AF0346FB714FF0B1
:104D80000003FB734FF46053C4F20203DA68FB794B
:104D90001340002B03D04FF00103FB7302E04FF0F0
:104DA0000003FB73FB7B184607F11407BD4680BC6C
:104DB000704700BF80B483B000AF0346FB7143F679
:104DC0000E03C4F20203FA791A7007F10C07BD460C
:104DD00080BC704780B586B000AF4FF002033B72D5
:104DE0004FF000037B724FF00103FB724FF0400362
:104DF0007B6007F104034FF40060C4F2020019461F
:104E000001F094F84FF080037B6007F104034FF446
:104E10000060C4F20200194601F088F84FF4006007
:104E2000C4F202004FF006014FF0030201F00CFA49
:104E30004FF40060C4F202004FF007014FF003028C
:104E400001F002FA4FF002004FF00101FFF73AFDC6
:104E500041F207033B614FF00003BB814FF00003B9
:104E6000BB824FF00003FB814FF48060C4F201006D
:104E70004FF003014FF002024FF0020339F036FD0C
:104E800007F10C034FF48060C4F20100194638F0BA
:104E90002FF94FF48060C4F201004FF0010138F0A7
:104EA000BDFA07F11807BD4680BD00BF80B586B0CA
:104EB00000AF4FF002033B724FF000037B724FF0E4
:104EC0000103FB724FF010037B6007F104034FF402
:104ED0008060C4F20200194601F028F84FF0200368
:104EE0007B6007F104034FF48060C4F202001946AE
:104EF00001F01CF84FF48060C4F202004FF004018E
:104F00004FF0020201F0A0F94FF48060C4F20200F9
:104F10004FF005014FF0020201F096F94FF0020048
:104F20004FF00101FFF7A4FC41F207033B614FF092
:104F30000003BB814FF00003BB824FF00003FB81F5
:104F40004FF48060C4F200004FF003014FF0020202
:104F50004FF0020339F0CAFC07F10C034FF48060F4
:104F6000C4F20000194638F0C3F84FF48060C4F270
:104F700000004FF0010138F051FA07F11807BD4663
:104F800080BD00BF80B586B000AF4FF002033B721A
:104F90004FF000037B724FF00103FB724FF480531C
:104FA0007B6007F104034FF44060C4F2020019462D
:104FB00000F0BCFF4FF400537B6007F104034FF493
:104FC0004060C4F20200194600F0B0FF4FF44060A8
:104FD000C4F202004FF00C014FF0020201F034F96C
:104FE0004FF44060C4F202004FF00D014FF0020296
:104FF00001F02AF94FF004004FF00101FFF738FCEF
:1050000041F207033B614FF00003BB814FF0000307
:10501000BB824FF00003FB814FF40060C4F200003C
:105020004FF003014FF002024FF0020339F05EFC33
:1050300007F10C034FF40060C4F20000194638F089
:1050400057F84FF40060C4F200004FF0010138F04F
:10505000E5F907F11807BD4680BD00BF80B586B0F1
:1050600000AF4FF002033B724FF000037B724FF032
:105070000103FB724FF001037B6007F104034FF063
:105080000000C4F20200194600F050FF4FF0020386
:105090007B6007F104034FF00000C4F202001946E0
:1050A00000F044FF4FF00000C4F202004FF0000196
:1050B0004FF0020201F0C8F84FF00000C4F2020005
:1050C0004FF001014FF0020201F0BEF84FF008006E
:1050D0004FF00101FFF7CCFB41F207033B614FF0BA
:1050E0000003BB814FF00003BB824FF00003FB8144
:1050F0004FF44060C4F200004FF003014FF0020291
:105100004FF0020339F0F2FB07F10C034FF440605B
:10511000C4F20000194637F0EBFF4FF44060C4F2D0
:1051200000004FF0010138F079F907F11807BD468A
:1051300080BD00BF80B400AFBFF34F8F4FF46D420E
:10514000CEF200024FF46D43CEF20003DB6803F4AD
:10515000E0614FF00403C0F2FA530B43D360BFF396
:105160004F8FFEE780B483B000AF78600046004602
:1051700007F10C07BD4680BC704700BF80B582B008
:1051800000AF7860FFF7D6FF07F10807BD4680BD86
:1051900080B500AF4BF6A050C0F60500FEF710FE3C
:1051A0004FF00100FFF7EAFF80BD00BF80B500AF00
:1051B0004BF6B850C0F60500FEF702FE4FF00200B5
:1051C000FFF7DCFF80BD00BF80B500AF4BF6D450C9
:1051D000C0F60500FEF7F4FD4FF00300FFF7CEFF29
:1051E00080BD00BF80B500AF4BF6F050C0F60500A3
:1051F000FEF7E6FD4FF00400FFF7C0FF80BD00BFE3
:1052000080B500AF4BF60C60C0F60500FEF7D8FD88
:105210004FF00500FFF7B2FF80BD00BF80B500AFC3
:105220004BF62860C0F60500FEF7CAFD4FF00600F9
:10523000FFF7A4FF80BD00BF80B500AF4BF6406014
:10524000C0F60500FEF7BCFD4FF00700FFF796FF24
:1052500080BD00BF80B400AFBD4680BC704700BFBA
:1052600080B500AF4FF001001EF014FD0346002B87
:1052700044D045F69C13C2F2000393F87B30DBB2B6
:10528000022B0DD14FF48050C4F202004FF0010107
:1052900000F02EFF0346002B30D120F0FDFB2DE067
:1052A00045F69C13C2F2000393F87B30DBB2002B6F
:1052B00011D045F69C13C2F2000393F87B30DBB2A9
:1052C000012B08D045F69C13C2F2000393F87B3003
:1052D000DBB2032B12D14FF48050C4F202004FF026
:1052E000010100F005FF0346002B07D145F69C1392
:1052F000C2F200034FF0010283F87A204FF0010060
:105300001EF0F4FC80BD00BF80B500AF4FF002007E
:105310001EF0C0FC0346002B15D045F69C13C2F2CC
:10532000000393F87B30DBB2022B0CD14FF480509A
:10533000C4F202004FF0020100F0DAFE0346002B37
:1053400001D120F0FFFB4FF002001EF0CFFC80BD2A
:1053500080B500AF4FF400501EF09CFC4FF400509D
:105360001EF0C4FC80BD00BF80B400AF45F69C13A6
:10537000C2F200034FF0000283F8792045F69C1337
:10538000C2F200034BF680321A6045F69C13C2F25B
:1053900000034FF0000283F87C2045F69C13C2F214
:1053A00000034FF0000283F87D2045F69C13C2F203
:1053B00000034FF0000283F87E2045F69C13C2F2F2
:1053C00000034FF0040283F8702045F69C13C2F2EC
:1053D00000034FF000025A6745F69C13C2F2000327
:1053E0004FF0000283F8782045F69C13C2F20003C8
:1053F0004FF0000283F87B2045F69C13C2F20003B5
:105400004FF010029A7145F69C13C2F200034FF060
:1054100010029A7145F69C13C2F200034FF07E52BF
:105420009A6045F69C13C2F200034FF032021A61F3
:1054300045F69C13C2F200034FF0030283F88C2060
:1054400045F69C13C2F200034FF009021A7545F6A7
:105450009C13C2F200034FF000029A8045F69C13A1
:10546000C2F200034FF0010283F88A2045F69C1334
:10547000C2F200034FF00C0283F88B2045F69C1318
:10548000C2F200034FF0030283F8802045F69C131C
:10549000C2F200034FF0060283F8812045F69C1308
:1054A000C2F200034FF0030283F8822045F69C13FA
:1054B000C2F200034FF0030283F8832045F69C13E9
:1054C000C2F200034FF0020283F8842045F69C13D9
:1054D000C2F200034FF0010283F8852045F69C13C9
:1054E000C2F200034FF0040283F8862045F69C13B5
:1054F000C2F200034FF005029A7545F69C13C2F202
:1055000000034FF0000283F8912045F69C13C2F28D
:1055100000034FF0140283F8922045F69C13C2F268
:10552000000340F2EE22C3F8942045F69C13C2F229
:1055300000034FF0000283F8982045F69C13C2F256
:1055400000034FF0080283F8992045F69C13C2F23D
:1055500000034FF4E172C3F89C2045F69C13C2F29D
:1055600000034FF000025A7545F69C13C2F2000387
:105570004FF000021A6245F69C13C2F200034FF08E
:1055800000025A6245F69C13C2F200034FF000027B
:105590001A6245F69C13C2F200034FF000025A62F1
:1055A00045F69C13C2F200034FF000029A6345F6E1
:1055B0009C13C2F200034FF00002DA6345F69C131D
:1055C000C2F200034FF000025A6445F69C13C2F287
:1055D00000034FF000029A6445F69C13C2F20003E8
:1055E0004FF00002DA6545F69C13C2F200034FF05B
:1055F00000021A6645F69C13C2F200034FF0000247
:1056000083F8642045F69C13C2F200034FF00002B9
:1056100083F8652045F69C13C2F200034FF00002A8
:105620009A6645F69C13C2F200034FF00002DA6658
:1056300045F69C13C2F200034FF000025A7645F67D
:105640009C13C2F200034FF00002DA6145F69C138E
:10565000C2F200034FF0000283F8A12045F69C132C
:10566000C2F200034FF00F0283F8A22045F69C130C
:10567000C2F2000393F8A230DBB21A4645F69C133F
:10568000C2F20003C3F8A42045F69C13C2F2000343
:105690004FF0000283F8AE2045F69C13C2F20003DF
:1056A0004FF00C0283F8AC2045F69C13C2F20003C5
:1056B0004FF0000283F8AF2045F69C13C2F20003BE
:1056C0004FF07C525A6545F69C13C2F200034FF02E
:1056D0000002DA7545F69C13C2F200034FF0000297
:1056E0001A7645F69C13C2F200034FF000029A6549
:1056F00045F69C13C2F200034FF0020283F8A0208B
:1057000045F69C13C2F200034FF0000283F8B2206A
:1057100045F69C13C2F200034FF0050283F8B32054
:1057200045F69C13C2F200034FF00F0283F8C42029
:1057300045F69C13C2F200034FF0040283F8B42034
:1057400045F69C13C2F200034FF0000283F8B52027
:1057500045F69C13C2F200034FF0010283F8B62015
:1057600045F69C13C2F2000344F20822C3F8B820A5
:1057700045F69C13C2F200034FF0010283F8BC20EF
:1057800045F69C13C2F2000344F20822A3F8BE209F
:1057900045F69C13C2F200034FF0010283F8C020CB
:1057A00045F69C13C2F200034FF0190283F8C220A1
:1057B00045F69C13C2F200034FF0030283F8C320A6
:1057C00045F69C13C2F200034FF0000283F86520F7
:1057D00045F69C13C2F200034FF00002C3F8C82044
:1057E00045F69C13C2F200034FF00002C3F8CC2030
:1057F00045F69C13C2F200034FF0000283F8D0205C
:1058000045F69C13C2F200034FF00002C3F8D42007
:1058100045F69C13C2F200034FF00102C3F8D820F2
:1058200045F69C13C2F200034FF0010283F8DC201E
:1058300045F69C13C2F200034FF0010283F8DD200D
:1058400045F69C13C2F200034FF0010283F8DE20FC
:1058500045F69C13C2F200034FF0010283F8DF20EB
:1058600045F69C13C2F200034FF0010283F8E020DA
:1058700045F69C13C2F200034FF0010283F8E120C9
:1058800045F69C13C2F200034FF0010283F8E220B8
:1058900045F69C13C2F200034FF0010283F8E320A7
:1058A00045F69C13C2F200034FF0010283F8E42096
:1058B00045F69C13C2F200034FF0000283F88720E4
:1058C00045F69C13C2F200034FF0000283F88820D3
:1058D00045F69C13C2F200034FF0000283F88920C2
:1058E00045F69C13C2F200034FF0000283F87F20BC
:1058F00045F69C13C2F200034FF00A02C3F8F020F1
:1059000045F69C13C2F200034FF00A02C3F8F420DC
:1059100045F69C13C2F200034FF00102C3F8F820D1
:1059200045F69C13C2F200034FF00102C3F8FC20BD
:1059300045F69C13C2F200034FF0000283F8AD203D
:1059400045F69C13C2F200034FF0000283F80021D9
:1059500045F69C13C2F200034FF00002C3F8042185
:1059600045F69C13C2F200034FF0000283F80821B1
:1059700045F69C13C2F200034FF0FF0283F80921A1
:1059800045F69C13C2F200034FF0C002C3F80C218D
:1059900045F69C13C2F200034FF0000283F80A217F
:1059A00045F69C13C2F200034FF0600283F8102109
:1059B00045F69C13C2F200034FF0600283F81121F8
:1059C00045F69C13C2F200034FF06802C3F814219D
:1059D00045F69C13C2F200034FF00102C3F81821F0
:1059E00045F69C13C2F200034FF00002C3F81C21DD
:1059F00045F69C13C2F200034FF00002C3F82021C9
:105A000045F69C13C2F200034FF00002C3F82421B4
:105A100045F69C13C2F200034FF00002C3F82821A0
:105A200045F69C13C2F200034FF0000283F82C21CC
:105A300045F69C13C2F200034FF0000283F82D21BB
:105A400045F69C13C2F200034FF0000283F82E21AA
:105A500045F69C13C2F200034FF00002C3F8342154
:105A600045F69C13C2F200034FF0000283F8382180
:105A700045F69C13C2F200034FF0000283F839216F
:105A800045F69C13C2F200034FF0000283F83A215E
:105A900045F69C13C2F200034FF00002C3F83C210C
:105AA00045F69C13C2F200034FF00002A3F8422116
:105AB00045F69C13C2F200034FF00002A3F8402108
:105AC00045F69C13C2F200034FF0000283F8442114
:105AD00045F69C13C2F200034FF0000283F8452103
